:1000000039C0000047C0000045C0000043C00000E8
:1000100041C000003FC000003DC000003BC00000E8
:1000200039C0000037C00000C2C000008EC0000010
:1000300031C000002FC000002DC000002BC0000008
:1000400029C0000027C0000025C0000023C0000018
:1000500021C000001FC000001DC000001BC0000028
:1000600019C0000017C00000506F77746F727A6576
:100070006E69650011241FBECFEFD8E0DEBFCDBF93
:1000800021E0A0E0B1E001C01D92A033B207E1F78A
:1000900026D1DDC1B5CF0F931F93FC018A019B01CF
:1000A0004FB7F89481A58A3019F44FBF80E019C08A
:1000B00081A550A590E0850F911D6AE070E06FD199
:1000C000880F991F880F991F8E0F9F1FDC010D93BA
:1000D0001D932D933C93139781A58F5F81A74FBFED
:1000E00081E01F910F9108951F93CF93DF93FC013F
:1000F0003FB7F89481A5811105C03FBF60E070E073
:1001000090E01FC020A5822F90E0DF0144E0249FF3
:10011000A00DB11D11241C911196DC91119712961E
:10012000CC91129713964C9101966AE070E037D10A
:1001300080A721A5215021A73FBF612F7D2F8C2FA4
:10014000942FDF91CF911F9108951F920F920FB6B8
:100150000F9211242F933F934F935F936F937F934D
:100160008F939F93AF93BF93EF93FF9380912E0153
:10017000833051F480912F01811106C04FEF5FEF62
:10018000BA0184E091E087DF10922E01FF91EF9198
:10019000BF91AF919F918F917F916F915F914F919F
:1001A0003F912F910F900FBE0F901F9018951F92A7
:1001B0000F920FB60F9211242F933F934F935F939B
:1001C0006F937F938F939F93AF93BF93EF93FF931F
:1001D0001092850010928400209186003091870053
:1001E0008091810080749091810040E494279093E5
:1001F000810090912E019130B1F028F09230D1F031
:100200009330E1F04BC0811149C081E080932E0111
:1002100010922F0110920001109201011092020120
:10022000109203013BC0215337402F313340B0F5CA
:1002300082E001C083E080932E0130C081112EC086
:100240008091000190910101A0910201B091030100
:10025000880F991FAA1FBB1F2B34314008F0816003
:100260008093000190930101A0930201B0930301D8
:1002700080912F018F5F80932F0180912F01803219
:1002800069F410922E01409100015091010160919A
:1002900002017091030184E091E0FDDEFF91EF9196
:1002A000BF91AF919F918F917F916F915F914F918E
:1002B0003F912F910F900FBE0F901F901895289A85
:1002C00080E59AE0909389008093880010928000E6
:1002D0008BE88093810082E280936F000895CF9332
:1002E000DF93CDB7DEB72D970FB6F894DEBF0FBE04
:1002F000CDBF259A43D0E3DF789488E690E06C0187
:10030000E12C8E010F5F1F4F380120E8822E809173
:100310002D018823E1F384E091E0E6DE6F3F2FEFCB
:1003200072078207920731F020E1A8015FD0882D83
:10033000B30102C08E2DB6010CD08AE003D08DE04F
:1003400001D0E5CF9091C00095FFFCCF8093C6000F
:100350000895CF92DF92EF926B01E82EF60184911F
:10036000E7FC8081882331F0EDDF8FEFC81AD80ACF
:10037000E80AF4CFEF90DF90CF9008951092C50077
:1003800087E68093C400E0ECF0E080818D7F80837D
:1003900088E18093C10086E08093C200089597FBB6
:1003A000072E16F4009406D077FD08D00BD007FC7A
:1003B00005D03EF4909581959F4F08957095619575
:1003C0007F4F0895AA1BBB1B51E107C0AA1FBB1F8B
:1003D000A617B70710F0A61BB70B881F991F5A95D1
:1003E000A9F780959095BC01CD010895BB27FA012E
:1003F000A62F6217710581059105330B30FB66F05E
:10040000AA27660F771F881F991FAA1FA21710F02F
:10041000A21B63953850A9F7A05DAA3308F0A95D27
:10042000A19336F7B111B1931082CA0100C0DC016B
:10043000FC01672F71917723E1F7329704C07C911B
:100440006D9370836291AE17BF07C8F30895F89457
:02045000FFCFDC
:00000001FF
